:020000040800F2
:10000000008001202D5D0008015D00087D5D000875
:10001000055D0008095D00080D5D00080000000096
:100020000000000000000000000000007D5D0008EE
:10003000115D0008000000007D5D000865470008B4
:100040007D5D00087D5D00087D5D00087D5D000828
:100050007D5D00087D5D00088D4C0008994C00080E
:10006000A54C0008B14C0008BD4C00087D5D00089F
:100070007D5D00087D5D00087D5D00087D5D0008F8
:100080007D5D00087D5D00087D5D00087D5D0008E8
:100090007D5D00087D5D00087D5D0008C94C00089D
:1000A0007D5D00087D5D00087D5D00087D5D0008C8
:1000B0007D5D00087D5D00087D5D00087D5D0008B8
:1000C0007D5D00087D5D00087D5D00087D5D0008A8
:1000D0007D5D00087D5D0008E95C00087D5D00082D
:1000E000F14C00080D5400087D5D00087D5D00089E
:1000F0007D5D00087D5D00087D5D00087D5D000878
:100100007D5D00087D5D00087D5D00087D5D000867
:100110007D5D00087D5D00087D5D00087D5D000857
:100120007D5D00087D5D00087D5D00087D5D000847
:100130007D5D00087D5D00087D5D00087D5D000837
:100140007D5D00087D5D00087D5D00087D5D000827
:100150007D5D00087D5D00087D5D00087D5D000817
:100160007D5D00087D5D00087D5D00087D5D000807
:100170007D5D00087D5D00087D5D000800000000D9
:080180007D5D00087D5D0008B3
:1001C000044B05481B1A062B02D9044B03B11847F0
:1001D000704700BF8B000020880000200000000056
:1001E00005490648091A891001EBD171491002D05E
:1001F000034B03B118477047880000208800002097
:100200000000000010B5064C237843B9FFF7D8FF73
:10021000044B13B10448AFF300800123237010BDD9
:1002200088000020000000001CAF000808B5084B43
:100230001BB108490848AFF300800848036813B9A8
:10024000BDE80840CCE7064B002BF9D09847F7E70C
:10025000000000008C0000201CAF00088800002077
:1002600000000000000000002DE9F041C1F30A5732
:10027000A7F2FF35132D02460B460C46884606466C
:1002800021DC002D4EDB3A4F2F41864601EA070C58
:100290005CEA0E0E1CD034A3D3E9002300F048F929
:1002A0000022002300F086FD48B1002C04DD4FF44D
:1002B000801343FA05F5A84428EA070400262146DE
:1002C0003046BDE8F081332D06DDB5F5806F3BD0BB
:1002D00010461946BDE8F081A7F213474FF0FF3EE4
:1002E0002EFA07F73842F3D01FA3D3E9002300F01A
:1002F0001FF90022002300F05DFD0028DFD0002C54
:1003000009DD142D2AD00123C5F1340503FA05F5C2
:10031000AE1928BF9844444626EA070621463046CF
:10032000BDE8F08110A3D3E9002300F001F9002219
:10033000002300F03FFD0028C1D0002C0ADB26433B
:1003400006D000260B4CBAE700F0F2F8BDE8F081C9
:100350003446B4E700264FF00044B0E704F101084A
:10036000D9E700BFAFF300809C7500883CE4377E7E
:10037000FFFF0F000000F03F2DE9F041C1F30A57E5
:10038000A7F2FF35132D02460B460C46884606465B
:100390001CDC002D3FDB3A4F2F41864601EA070C5B
:1003A0005CEA0E0E17D034A3D3E9002300F0C0F8A6
:1003B0000022002300F0FEFC20B1002C3FDB28EAE5
:1003C0000704002621463046BDE8F081332D06DDC6
:1003D000B5F5806F2FD010461946BDE8F081A7F221
:1003E00013474FF0FF3E2EFA07F73842F3D022A30F
:1003F000D3E9002300F09CF80022002300F0DAFC8F
:100400000028DFD0002C20DB444626EA07062146E0
:100410003046BDE8F08118A3D3E9002300F088F846
:100420000022002300F0C6FC0028CBD0002C17DBF4
:1004300000263446C6E700F07BF8BDE8F0814FF4B3
:10044000801343FA05F5A844B9E7142D10D0012311
:10045000C5F1340503FA05F5AE1928BF9844D3E772
:1004600024F00042074B324318BF1C460026A9E780
:1004700004F10108C8E700BF9C7500883CE4377EA2
:10048000FFFF0F000000F0BFF8B5C1F30A56A6F257
:10049000FF35132D02460B460C46864610DC002D18
:1004A0002EDB0F461E4929410B4226D04FF4002473
:1004B0002C413C4424EA0104002621463046F8BD84
:1004C000332D05DDB5F5806F20D010461946F8BDF7
:1004D000A6F213464FF0FF3121FA06F63042F4D06F
:1004E0000123C5F1330503FA05F52D1828BFE418DB
:1004F00025EA060621463046F8BD0028D6D1E4E7B5
:10050000013501F0004404D00026D6E700F010F8D1
:10051000F8BD44F07F5444F440140026CDE700BFFA
:10052000FFFF0F0081F0004102E000BF83F00043B5
:1005300030B54FEA41044FEA430594EA050F08BF7E
:1005400090EA020F1FBF54EA000C55EA020C7FEA42
:10055000645C7FEA655C00F0E2804FEA5454D4EBBF
:100560005555B8BF6D420CDD2C4480EA020281EA89
:10057000030382EA000083EA010180EA020281EAC1
:100580000303362D88BF30BD11F0004F4FEA013113
:100590004FF4801C4CEA113102D0404261EB410122
:1005A00013F0004F4FEA03334CEA133302D05242A8
:1005B00063EB430394EA050F00F0A780A4F1010464
:1005C000D5F1200E0DDB02FA0EFC22FA05F280189E
:1005D00041F1000103FA0EF2801843FA05F3594184
:1005E0000EE0A5F120050EF1200E012A03FA0EFC03
:1005F00028BF4CF0020C43FA05F3C01851EBE3712D
:1006000001F0004507D54FF0000EDCF1000C7EEB49
:1006100000006EEB0101B1F5801F1BD3B1F5001F87
:100620000CD349085FEA30004FEA3C0C04F10104A6
:100630004FEA445212F5800F80F09A80BCF1004FCF
:1006400008BF5FEA500C50F1000041EB045141EA51
:10065000050130BD5FEA4C0C404141EB010111F452
:10066000801FA4F10104E9D191F0000F04BF0146FD
:100670000020B1FA81F308BF2033A3F10B03B3F1DB
:1006800020020CDA0C3208DD02F1140CC2F10C026B
:1006900001FA0CF021FA02F10CE002F11402D8BFC9
:1006A000C2F1200C01FA02F120FA0CFCDCBF41EA95
:1006B0000C019040E41AA2BF01EB0451294330BD64
:1006C0006FEA04041F3C1CDA0C340EDC04F1140441
:1006D000C4F1200220FA04F001FA02F340EA030018
:1006E00021FA04F345EA030130BDC4F10C04C4F15E
:1006F000200220FA02F001FA04F340EA030029463E
:1007000030BD21FA04F0294630BD94F0000F83F487
:10071000801306BF81F480110134013D4EE77FEA6A
:10072000645C18BF7FEA655C29D094EA050F08BFB6
:1007300090EA020F05D054EA000C04BF1946104697
:1007400030BD91EA030F1EBF0021002030BD5FEADB
:10075000545C05D14000494128BF41F0004130BD03
:1007600014F580043CBF01F5801130BD01F0004557
:1007700045F0FE4141F470014FF0000030BD7FEACA
:10078000645C1ABF194610467FEA655C1CBF0B46C5
:10079000024650EA013406BF52EA033591EA030FDC
:1007A00041F4002130BD00BF90F0000F04BF0021D4
:1007B000704730B54FF4806404F132044FF0000507
:1007C0004FF0000150E700BF90F0000F04BF002180
:1007D000704730B54FF4806404F1320410F00045E6
:1007E00048BF40424FF000013EE700BF42004FEAE1
:1007F000E2014FEA31014FEA02701FBF12F07F435E
:1008000093F07F4F81F06051704792F0000F14BF5A
:1008100093F07F4F704730B54FF4607401F000459E
:1008200021F0004120E700BF50EA010208BF7047F5
:1008300030B54FF000050AE050EA010208BF7047EA
:1008400030B511F0004502D5404261EB41014FF453
:10085000806404F132045FEA915C3FF4DCAE4FF057
:1008600003025FEADC0C18BF03325FEADC0C18BF3E
:10087000033202EBDC02C2F1200300FA03FC20FA8F
:1008800002F001FA03FE40EA0E0021FA02F11444DC
:10089000C1E600BF70B54FF0FF0C4CF4E06C1CEAF1
:1008A00011541DBF1CEA135594EA0C0F95EA0C0F66
:1008B00000F0DEF82C4481EA030621EA4C5123EAD9
:1008C0004C5350EA013518BF52EA033541F4801108
:1008D00043F4801338D0A0FB02CE4FF00005E1FBBB
:1008E00002E506F00042E0FB03E54FF00006E1FB05
:1008F00003569CF0000F18BF4EF0010EA4F1FF0448
:10090000B6F5007F64F5407404D25FEA4E0E6D4187
:1009100046EB060642EAC62141EA55514FEAC52098
:1009200040EA5E504FEACE2EB4F1FD0C88BFBCF514
:10093000E06F1ED8BEF1004F08BF5FEA500E50F1C5
:10094000000041EB045170BD06F0004646EA01018B
:1009500040EA020081EA0301B4EB5C04C2BFD4EBBD
:100960000C0541EA045170BD41F480114FF0000EB6
:10097000013C00F3AB8014F1360FDEBF002001F024
:10098000004170BDC4F10004203C35DA0C341BDC9E
:1009900004F11404C4F1200500FA05F320FA04F070
:1009A00001FA05F240EA020001F0004221F00041A4
:1009B00010EBD37021FA04F642EB06015EEA430E17
:1009C00008BF20EAD37070BDC4F10C04C4F1200547
:1009D00000FA04F320FA05F001FA04F240EA0200FA
:1009E00001F0004110EBD37041F100015EEA430ECB
:1009F00008BF20EAD37070BDC4F1200500FA05F2EB
:100A00004EEA020E20FA04F301FA05F243EA020369
:100A100021FA04F001F0004121FA04F220EA020078
:100A200000EBD3705EEA430E08BF20EAD37070BDBE
:100A300094F0000F0FD101F00046400041EB01019E
:100A400011F4801F08BF013CF7D041EA060195F080
:100A5000000F18BF704703F00046520043EB03033A
:100A600013F4801F08BF013DF7D043EA0603704727
:100A700094EA0C0F0CEA135518BF95EA0C0F0CD032
:100A800050EA410618BF52EA4306D1D181EA030178
:100A900001F000414FF0000070BD50EA410606BF72
:100AA0001046194652EA430619D094EA0C0F02D1B7
:100AB00050EA013613D195EA0C0F05D152EA0336FC
:100AC0001CBF104619460AD181EA030101F000411A
:100AD00041F0FE4141F470014FF0000070BD41F063
:100AE000FE4141F4780170BD70B54FF0FF0C4CF43D
:100AF000E06C1CEA11541DBF1CEA135594EA0C0F5C
:100B000095EA0C0F00F0A7F8A4EB050481EA030EA8
:100B100052EA03354FEA013100F088804FEA03338F
:100B20004FF0805545EA131343EA12634FEA02225D
:100B300045EA111545EA10654FEA00260EF000411E
:100B40009D4208BF964244F1FD0404F5407402D270
:100B50005B084FEA3202B61A65EB03055B084FEA01
:100B600032024FF480104FF4002CB6EB020E75EBFE
:100B7000030E22BFB61A754640EA0C005B084FEA26
:100B80003202B6EB020E75EB030E22BFB61A7546A3
:100B900040EA5C005B084FEA3202B6EB020E75EBEE
:100BA000030E22BFB61A754640EA9C005B084FEA66
:100BB0003202B6EB020E75EB030E22BFB61A754673
:100BC00040EADC0055EA060E18D04FEA051545EA62
:100BD00016754FEA06164FEAC30343EA52734FEA0B
:100BE000C2025FEA1C1CC0D111F4801F0BD141EA84
:100BF00000014FF000004FF0004CB6E711F4801FE9
:100C000004BF01430020B4F1FD0C88BFBCF5E06FC8
:100C10003FF6AFAEB5EB030C04BFB6EB020C5FEAD8
:100C2000500C50F1000041EB045170BD0EF0004E2D
:100C30004EEA113114EB5C04C2BFD4EB0C0541EA5F
:100C4000045170BD41F480114FF0000E013C90E65C
:100C500045EA060E8DE60CEA135594EA0C0F08BF20
:100C600095EA0C0F3FF43BAF94EA0C0F0AD150EA1F
:100C700001347FF434AF95EA0C0F7FF425AF1046B2
:100C800019462CE795EA0C0F06D152EA03353FF4DA
:100C9000FDAE1046194622E750EA410618BF52EA57
:100CA00043067FF4C5AE50EA41047FF40DAF52EA2B
:100CB00043057FF4EBAE12E74FF0FF3C06E000BFC8
:100CC0004FF0010C02E000BF4FF0010C4DF804CDD5
:100CD0004FEA410C7FEA6C5C4FEA430C18BF7FEA95
:100CE0006C5C1BD001B050EA410C0CBF52EA430CC3
:100CF00091EA030F02BF90EA020F0020704710F143
:100D0000000F91EA030F58BF994208BF90422CBFD1
:100D1000D8176FEAE37040F0010070474FEA410CCA
:100D20007FEA6C5C02D150EA013C07D14FEA430CE8
:100D30007FEA6C5CD6D152EA033CD3D05DF8040B59
:100D4000704700BF8446104662468C46194663468B
:100D500000E000BF01B5FFF7B7FF002848BF10F162
:100D6000000F01BD4DF808EDFFF7F4FF0CBF0120A7
:100D700000205DF808FB00BF4DF808EDFFF7EAFF23
:100D800034BF012000205DF808FB00BF4DF808EDDE
:100D9000FFF7E0FF94BF012000205DF808FB00BFD3
:100DA0004DF808EDFFF7CEFF94BF012000205DF85D
:100DB00008FB00BF4DF808EDFFF7C4FF34BF01206A
:100DC00000205DF808FB00BF4FEA410212F5001257
:100DD00015D211D56FF47873B3EB625212D94FEA82
:100DE000C12343F0004343EA505311F0004F23FA6C
:100DF00002F018BF404270474FF00000704750EAC1
:100E0000013005D111F0004008BF6FF0004070477D
:100E10004FF00000704700BF4A0011D212F50012D7
:100E200011D20DD56FF47873B3EB62520ED44FEA42
:100E3000C12343F0004343EA505323FA02F07047C2
:100E40004FF00000704750EA013002D14FF0FF3000
:100E500070474FF00000704753B94AB9002908BFE6
:100E600000281CBF4FF0FF314FF0FF3000F07EB97B
:100E7000ADF1080C6DE904CE00F006F8DDF804E0F1
:100E8000DDE9022304B070472DE9F0478C460E4699
:100E90000446089D002B50D18A4217466CD9B2FAFD
:100EA00082FEBEF1000F0BD0CEF1200420FA04F434
:100EB00001FA0EF644EA060C02FA0EF700FA0EF4F6
:100EC0004FEA1749220CBCFBF9F01FFA87F809FB1F
:100ED00010C642EA064600FB08F3B34209D9F619E8
:100EE00000F1FF3280F02281B34240F21F810238CC
:100EF0003E44F61AA2B2B6FBF9F309FB136642EAC6
:100F0000064403FB08F8A04509D9E41903F1FF32B0
:100F100080F00A81A04540F20781023B3C44C8EBC7
:100F2000040443EA00400021002D62D024FA0EF4AC
:100F300000232C606B60BDE8F0878B4207D9002D41
:100F400055D0002185E841000846BDE8F087B3FA96
:100F500083F1002940F09080B34202D3824200F234
:100F6000F880841A66EB03060120B446002D40D0B9
:100F700085E81010BDE8F08712B90127B7FBF2F73A
:100F8000B7FA87FEBEF1000F35D1F31B4FEA1748C1
:100F90001FFA87FC0121B3FBF8F0220C08FB103686
:100FA00042EA06460CFB00F3B34207D9F61900F1FA
:100FB000FF3202D2B34200F2CE801046F61AA2B23D
:100FC000B6FBF8F308FB136642EA06440CFB03FC8D
:100FD000A44507D9E41903F1FF3202D2A44500F277
:100FE000B5801346CCEB040443EA00409CE7294655
:100FF0002846BDE8F087CEF1200106FA0EF307FA85
:101000000EF720FA01F94FEA1748CE4049EA0309E2
:10101000B6FBF8FA4FEA194408FB1A661FFA87FC78
:1010200044EA06430AFB0CF29A4200FA0EF40AD98B
:10103000DB190AF1FF3180F087809A4240F2848008
:10104000AAF1020A3B449B1A1FFA89F9B3FBF8F193
:1010500008FB113349EA034301FB0CF69E4207D912
:10106000DB1901F1FF326BD29E4269D902393B4450
:101070009B1B41EA0A418EE7C1F1200E22FA0EF4D1
:101080008B40234320FA0EF706FA01F44FEA134C83
:1010900026FA0EF63C43B6FBFCF9270C0CFB19664E
:1010A0001FFA83F847EA064609FB08F7B74202FA37
:1010B00001F200FA01FA08D9F61809F1FF3041D21D
:1010C000B7423FD9A9F102091E44F61BA0B2B6FBF4
:1010D000FCF40CFB146640EA064704FB08F8B8452C
:1010E00007D9FF1804F1FF3028D2B84526D9023CB1
:1010F0001F4444EA0940C8EB0707A0FB02894F459B
:1011000044464E4614D329D065B3BAEB040367EBCB
:10111000060707FA0EFECB40CF404EEA030385E8F0
:1011200088000021BDE8F0871346F8E61046E0E6A7
:10113000B8EB020469EB03060138E5E70446D8E79B
:10114000114695E78146C0E78A467CE7023B3C446E
:1011500048E708460AE702383E442FE7C245E7D38E
:101160003E46D1E72946BDE8F08700BF704700BF83
:1011700070B50F4E0F4D761BB61018BF002405D06A
:10118000013455F8043B9847A642F9D10A4E0B4D5D
:10119000761B09F0C3FEB61018BF002406D0013438
:1011A00055F8043B9847A642F9D170BD70BD00BF09
:1011B00050B9000850B9000854B9000850B90008E7
:1011C000844641EA000313F003036DD1403A41D352
:1011D00051F8043B40F8043B51F8043B40F8043B11
:1011E00051F8043B40F8043B51F8043B40F8043B01
:1011F00051F8043B40F8043B51F8043B40F8043BF1
:1012000051F8043B40F8043B51F8043B40F8043BE0
:1012100051F8043B40F8043B51F8043B40F8043BD0
:1012200051F8043B40F8043B51F8043B40F8043BC0
:1012300051F8043B40F8043B51F8043B40F8043BB0
:1012400051F8043B40F8043B51F8043B40F8043BA0
:10125000403ABDD2303211D351F8043B40F8043B40
:1012600051F8043B40F8043B51F8043B40F8043B80
:1012700051F8043B40F8043B103AEDD20C3205D350
:1012800051F8043B40F8043B043AF9D2043208D048
:10129000D2071CBF11F8013B00F8013B01D30B88BA
:1012A00003806046704700BF082A13D38B078DD098
:1012B00010F003038AD0C3F10403D21ADB071CBF6A
:1012C00011F8013B00F8013B80D331F8023B20F8D4
:1012D000023B7BE7043AD9D3013A11F8013B00F80D
:1012E000013BF9D20B7803704B7843708B78837095
:1012F0006046704770B4840746D0541E002A41D01F
:10130000CDB2034602E0621EE4B3144603F8015B6B
:101310009A07F8D1032C2ED9CDB245EA05250F2C1A
:1013200045EA054519D903F110022646103E0F2E55
:1013300042F8105C42F80C5C42F8085C42F8045C2D
:1013400002F11002F2D8A4F1100222F00F0204F010
:101350000F041032032C13440DD91E462246043AC2
:10136000032A46F8045BFAD8221F22F00302043253
:10137000134404F003042CB1C9B21C4403F8011B4C
:10138000A342FBD170BC704714460346C2E700BFBE
:1013900008B4F0B5002A9CB03DDB4FF4027314464C
:1013A000054602910691ADF8143022AE16D0541EB7
:1013B0003346219A04944FF6FF7702A907940196C9
:1013C000ADF8167000F06AFA421C1ADB029B00228C
:1013D0001A701CB0BDE8F04001B0704733464FF6BC
:1013E000FF77219A049402A907940196ADF816702C
:1013F00000F054FA431C07DB1CB0BDE8F04001B01C
:1014000070478B232B60E1E78B232B601CB0BDE87A
:10141000F04001B070478B2202604FF0FF30EBE7E5
:101420000CB4F0B5244B00299DB01D683EDB4FF491
:1014300002730C4602900690ADF8143023AE17D01C
:101440004C1E229A049433464FF6FF7702A9284691
:1014500007940196ADF8167000F020FA421C1BDBD1
:10146000029B00221A701DB0BDE8F04002B0704728
:1014700033464FF6FF77229A049402A92846079430
:101480000196ADF8167000F009FA431C07DB1DB099
:10149000BDE8F04002B070478B232B60E0E78B2360
:1014A0002B601DB0BDE8F04002B070478B232B606D
:1014B0004FF0FF30EBE700BF00000020000000000D
:1014C00090F800F06DE9024520F007016FF0000C84
:1014D00010F0070491F820F040F049804FF000042C
:1014E0006FF00700D1E9002391F840F000F1080007
:1014F00082FA4CF2A4FA8CF283FA4CF3A2FA8CF33F
:101500004BBBD1E9022382FA4CF200F10800A4FAA5
:101510008CF283FA4CF3A2FA8CF3E3B9D1E90423F9
:1015200082FA4CF200F10800A4FA8CF283FA4CF330
:10153000A2FA8CF37BB9D1E9062301F1200182FAEA
:101540004CF200F10800A4FA8CF283FA4CF3A2FAF0
:101550008CF3002BC6D0002A04BF04301A4612BAFE
:10156000B2FA82F2FDE8024500EBD2007047D1E901
:10157000002304F00305C4F100004FEAC50514F090
:10158000040F91F840F00CFA05F562EA05021CBF61
:1015900063EA050362464FF00004A9E7002A41D040
:1015A00040EA010313F00303F0B425D1032A23D941
:1015B00004680D68AC421FD1043A35D0A4F101355E
:1015C00025EA040414F0803F31D1071D0D1D0DE004
:1015D00057F8043B0E68A3F10134B34224EA030434
:1015E0000AD1043A20D014F0803F23D1032A29469F
:1015F000384605F10405EBD803780C789C4202F1DB
:10160000FF320CD182B114B916E06AB17BB110F887
:10161000013F11F8014FA34202F1FF32F5D0181B30
:10162000F0BC7047104670471046F0BC7047184633
:10163000F0BC70470020F3E72046F1E770B5002AC0
:101640009AB005462FDB14461A464FF402730091F8
:101650000491ADF80C3011D0013C4FF6FF761E9B83
:10166000029469460594ADF80E6000F017F9421C2B
:1016700012DB009B00221A701AB070BD1E9B0294F0
:101680004FF6FF7669460594ADF80E6000F006F956
:10169000431C04DB1AB070BD8B232B60E9E78B235E
:1016A0002B601AB070BD8B2303604FF0FF30F1E761
:1016B00010B582B0054C0093246813460A460146D3
:1016C0002046FFF7BBFF02B010BD00BF00000020A6
:1016D0002DE9F84F8E689E420C461F46904629D849
:1016E0008B8913F4906F35D04D692268096905EB39
:1016F0004505C1EB020A814605EBD5750AF10100EB
:101700006D103844A8422A4684BF05462A465B0528
:1017100023D51146484600F0BDFC834690B352469F
:101720002169FFF74DFDA38923F4906343F0800303
:10173000A38117E008681E461D462A46414600F070
:10174000FFFBA36822689E1B1544A660256000204D
:10175000BDE8F88F35460868EFE7484600F0F8FC2A
:10176000834658B1CAEB05030BEB0A0065613E46A0
:10177000C4F810B02060A3603D46DEE7216948460A
:1017800000F042FC0C23C9F80030A38943F0400369
:10179000A3814FF0FF30BDE8F88F00BF2DE9F04F77
:1017A000936883B09046002B72D083464FF00009B7
:1017B000166808688B680D464C46002C45D09C4244
:1017C0001F469A4646D3AB8913F4906F2DD06F69AC
:1017D000296907EB4707C1EB000A07EBD777601CC5
:1017E0007F105044B8423A4684BF07463A465B05EC
:1017F00033D51146584600F04DFC002837D05246EC
:1018000029690190FFF7DCFCAA89019B22F4906210
:1018100042F08002AA81CAEB070203EB0A006F6163
:101820002B612860AA602746A2465246494600F02E
:1018300087FBD8F80820AB682868DB1B5044141BD2
:10184000AB602860C8F8084014B3D6F800907468FC
:101850000836B2E72746A246E7E7584600F078FC8C
:1018600003460028D7D12969584600F0CDFB0C2348
:10187000CBF80030AB89002243F040034FF0FF303B
:10188000AB81C8F80820C8F8042003B0BDE8F08F89
:101890000020C8F8040003B0BDE8F08F2DE9F04F38
:1018A00014468A899DB0150688460393814603D560
:1018B0000B69002B00F0EC8030238DF82A30237860
:1018C0007C4DDFF8F4A10021202209918DF8292018
:1018D000002B00F08580252B264603D117E0252B11
:1018E00000F0888016F8013F002BF8D1B6EB040B0E
:1018F00076D022465B4641464846FFF7E9FE013076
:101900006ED0099B32785B440993002A68D000238B
:101910004FF0FF31721C0493079306938DF85330F8
:101920001A930591012604E0049906FA03F30B4388
:10193000049314465F482178052200F0B1FA621C36
:10194000431B0028F0D1049BD80644BF20228DF809
:1019500053201907217844BF2B228DF853202A29C0
:101960006AD0A1F13002092A0BD8079B14F8011F95
:1019700003EB830302EB4303A1F13002092AF5D9FB
:1019800007932E2941D003224B4800F089FA48B131
:101990000499CAEB0000402202FA00F041EA000379
:1019A00001340493217845488DF82810062201342B
:1019B00000F076FA002861D0414BFBB103AB0093F5
:1019C0004246404B04A94846AFF3008007467A1CC4
:1019D00006D0099B3B4409932378002B7FF47BAF0F
:1019E000B8F80C305B0654BF09984FF0FF301DB0BB
:1019F000BDE8F08FB6EB040B89D07AE7039B073381
:101A000023F0070308330393E3E761782A291DD005
:101A1000A1F130020023092A04F101040593B2D890
:101A200014F8011F03EB830302EB4303A1F130021F
:101A3000092AF5D90593A6E7039A1168043200290B
:101A4000039215DB0791617801349AE7039B1A68CA
:101A50000592002A03F104030393B8BF4FF0FF324D
:101A600004F10203AEBFA178A17805921C468AE773
:101A7000494243F0020307910493E4E703AB009368
:101A80004246104B04A9484600F0B6F807469EE7C8
:101A9000402100F0FFFAC8F80000C8F8100018B1A3
:101AA0004023C8F8143007E70C23C9F800304FF082
:101AB000FF309CE70CB9000814B9000818B90008F9
:101AC00000000000D11600082DE9F0470C469146B1
:101AD0000969A268DDF820808A42B8BF0A46C9F8C1
:101AE000002094F8431006461F4611B10132C9F890
:101AF0000020236899065DD5D9F800200232C9F884
:101B00000020236813F0060F19461DD1E1688A1AD8
:101B1000002AD8BF194617DD04F1190A002505E08F
:101B2000E368D9F800209B1AAB420CDD0123524632
:101B300039463046C047013005F10105F0D14FF07C
:101B4000FF30BDE8F087216894F84330003318BFB8
:101B500001238A060AD5E1185A1C302081F8430077
:101B6000224494F8451082F84310023304F14302F2
:101B700039463046C0470130E1D0236803F0060300
:101B8000042B29D0A36822699342C8BF4FF00009F3
:101B90002FDD9B1A99441A34002501E04D4528D0C9
:101BA0000123224639463046C047013005F1010580
:101BB000F4D1C4E713F0060F08D1E168D9F800208A
:101BC0008A1A002AD8BF1946A6DCBDE794F843302C
:101BD000003318BF0123C9E7D9F80000E168A36802
:101BE0002269091A934221EAE179D2DCB9F1000FA6
:101BF000D1D10020BDE8F0872DE9F0430C46097EE5
:101C000085B06E29064617460C98984604F1430C99
:101C10005AD01AD8632900F0128100F2D680002928
:101C20005CD0582940F0F58084F84510226803689C
:101C3000DFF864E2150603F104011ED4550653BF14
:101C40001B6801601B88016019E0732900F0CF80D8
:101C50007ED86F2900F0E480702940F0DA80226895
:101C600042F020022260782384F845300368DFF8D0
:101C70002CE2150603F10401E0D51B680160D007D2
:101C800044BF42F020022260002B40F09080226886
:101C900022F0200222601021002284F84320606894
:101CA000A0600028C0F28880226822F0040222602E
:101CB000002B62D1002840F08180654608296AD057
:101CC000C5EB0C0323610CE023681A0640F1D580B4
:101CD00003686269191D01601B681A60002365466C
:101CE0002361CDF800803B4603AA21463046FFF72A
:101CF000EBFE013021D02A46236939463046C047E1
:101D000001301AD02368039813F0020FE36819D04A
:101D10001A1A002A16DD04F11909002504E0E36807
:101D200003981A1AAA420DDD01234A463946304665
:101D3000C047013005F10105F1D14FF0FF3005B08A
:101D4000BDE8F0839842B8BF184605B0BDE8F083FF
:101D5000752965D078295CD1226884E76168A16023
:101D60002D200029C3F1000384F8430021DB22F079
:101D70000402DFF824E122600A216546B3FBF1F298
:101D800001FB123013461EF8002005F8012D002B30
:101D9000F4D1082994D12368D90791D562682369C1
:101DA0009A428DDC302305F8013C013D88E7102183
:101DB00072E7DFF8E4E00A21002BDED19EF8003064
:101DC00084F8423004F1420578E7642901D069299A
:101DD0001FD122680368150603F104013AD51B6878
:101DE0000160002BBADBDFF8B0E00A2157E7036897
:101DF0006268191D01601D680021284600F050F836
:101E0000002846D0401B60602061002384F84330E6
:101E100067E7012384F84210236104F14205F4E7E7
:101E200023681A061ED503681A1D1B680260227EED
:101E3000DFF864E06F2A14BF0A2108212CE7036849
:101E40001A68191D0123016004F1420584F842203B
:101E50002361DAE7550653BF1B680160B3F9003010
:101E60000160BEE713F0400F036803F1040215BFE1
:101E700002601B681B880260D9E713F0400F0368FB
:101E8000626903F1040101601B6814BF1A801A60C3
:101E900024E76068B8E700BF20B9000834B900083B
:101EA00001F0FF01102A2BDB10F0070F08D010F80B
:101EB000013B013A8B422DD010F0070F42B3F6D10F
:101EC000F0B441EA012141EA014122F007047FF028
:101ED00000070023F0E80256083C85EA010586EA7F
:101EE000010685FA47F5A3FA87F586FA47F6A5FABB
:101EF00087F68EB9EED1F0BC01F0FF0102F00702C7
:101F000032B110F8013B013A83EA010313B1F8D171
:101F10000020704701387047002D06BF3546033852
:101F2000073815F0010F07D1013015F4807F02BF8B
:101F3000013015F4C03F0130F0BC0138704700BFDC
:101F40008842F0B50DD98B1898420AD28118002A20
:101F500051D09A1A13F8014D01F8014D9342F9D16D
:101F6000F0BD0F2A48D941EA00039B0746D100F192
:101F7000100401F11003154653F8106C44F8106C6E
:101F800053F80C6C44F80C6C53F8086C44F8086C6B
:101F9000103D53F8046C44F8046C0F2D03F110034A
:101FA00004F11004E8D8A2F1100323F00F0302F0AB
:101FB0000F0E1033BEF1030F1944034421D91E1F25
:101FC0000D467446043C55F8047B46F8047F032C08
:101FD000F8D8AEF1040424F003040434234421446B
:101FE00002F0030262B1013B0A4411F8014B03F80D
:101FF000014F8A42F9D1F0BD0346F3E70346F2E709
:10200000F0BD7246EEE700BF30B481B151F8043C38
:102010000439002BB8BFC9181D4B1A682AB18A426F
:102020000AD908680C18A24225D04A60196030BC51
:1020300070478B4203D81A465368002BF9D11468B5
:1020400015198D420CD007D808680C189C4218D07E
:102050004B6030BC516070470C23036030BC70474C
:1020600009680C44111999421460E0D10ACB0C4460
:1020700053601460DBE7146852684A6020440860CB
:10208000D4E71C685B684B60204408605160CEE771
:10209000A400002070B5CD1C25F0030508350C2DDB
:1020A00038BF0C25002D06463BDBA94239D827490D
:1020B0000A6852B113685B1B04D436E023685B1BCB
:1020C0001AD522465468002CF8D149681F4C0029C3
:1020D00036D02946304600F05FF8431C21D0C41C9E
:1020E00024F00304A04205D0211A304600F054F831
:1020F000013016D0256004E00B2B0DD923601C4461
:10210000256004F10B0020F00700231DC31A02D044
:102110005A42E25070BD70BD94420ED06368536065
:10212000EFE70C233360002070BD0B2B03D85368FE
:1021300014460B60E5E71446E0E713461446F8E75B
:10214000304600F029F86060C3E700BFA40000201B
:10215000F9B1F8B506461546B2B10C4600F02EF8B6
:10216000854201D82046F8BD29463046FFF792FF48
:10217000074668B12A462146FFF722F83046214635
:10218000FFF742FF3846F8BDFFF73EFF2846F8BD8F
:10219000F8BD1146FFF77EBF38B5074C0023054652
:1021A0000846236000F014F8431C00D038BD2368B3
:1021B000002BFBD02B6038BD8006002051F8040CAA
:1021C0000028BEBF091851F8043CC01804387047F5
:1021D000044A05491368002B08BF0B4618441060D9
:1021E00018467047AC000020880600200FB400B5E8
:1021F000A3B024AB53F8042B2193802101A8FFF74F
:1022000057FA01A8FFF75CF982B201A9034800F070
:1022100031FC23B05DF804EB04B07047C405002026
:1022200008B5064BDB6A98470522054B1A7005482E
:10223000FFF7DCFF642000F033FA08BD9CB3000810
:10224000B200002040AF000808B5064BDB6A984793
:102250000222054B1A700548FFF7C8FF642000F002
:102260001FFA08BD9CB30008B200002068AF000848
:1022700008B5064BDB6A98470322054B1A700548E0
:10228000FFF7B4FF642000F00BFA08BD9CB3000810
:10229000B200002090AF000808B530B10848FFF741
:1022A000A5FF642000F0FCF908BD0648FFF79EFF7B
:1022B000642000F0F5F9044B9B6B984708BD00BF04
:1022C000B4AF0008E0AF00089CB3000838B5104C6C
:1022D000E36A984704220F4B1A700F48FFF786FFF6
:1022E000642000F0DDF90D4D284600F021FA80F061
:1022F0000101284600F018FA0948FFF777FF14207B
:1023000000F0CEF9636B4FF47A70984738BD00BF88
:102310009CB30008B200002010B00008B8050020EF
:102320002CB000082DE9F04190B080460C461546CF
:102330001F464026324600216846FEF7DBFF134B5E
:10234000DB6A9847124B1C80224641461148FEF733
:1023500037FF114B1D70114B1F700122104B1A706B
:1023600000F040FA2B460F4A31466846FFF758F80E
:10237000684600F03BFA2A4621460B48FFF736FF35
:10238000642000F08DF910B0BDE8F0819CB3000826
:102390006400002028040020B0000020B1000020CC
:1023A000B20000203CB0000840B000082DE9F04326
:1023B0008BB002F081FA02F0AFF9A44CA44B236079
:1023C000A44BA360A44B6360A44BE360A44B2361C4
:1023D000A44BA361A448FFF709FFA44E336820462D
:1023E0009847642000F05CF9F368A148984740F6EC
:1023F000B8330893002507950695059501240494A4
:1024000003954FF00809CDF8089001944FF00708A4
:10241000CDF800802B462A460E212046F769B847A2
:102420000994089507950695059404950395052349
:102430000293CDF804900095234642462946204653
:10244000B569A847736B4FF47A709847894B1B782E
:10245000013B042BFAD8DFE813F00500AF00AF0012
:10246000AB00EA00002C5BD0834B1B88002B00F0F4
:102470009B80042281498248FFF790F868BB814D18
:10248000284600F055F980F00101284600F04CF98B
:102490007B4B50221A7049225A704E229A70472262
:1024A000DA70042304E0191F754AD1540133DBB2FA
:1024B0009AB2714909888A42F5D3012000F0F0F8F8
:1024C0006A4B9B6A6C4A11786D4898476E48FFF7D3
:1024D0008DFE642000F0E4F866E004226B49684851
:1024E000FFF75CF880B90121694800F01DF96948DF
:1024F000FFF77CFE142000F0D3F85C4B5B6B4FF4CD
:102500007A70984700244FE06248FFF76FFE14206E
:1025100000F0C6F8554B5B6B4FF47A70984743E078
:10252000554B1B88002B3FD0042258495448FFF7D5
:1025300035F868BB534D284600F0FAF880F00101E9
:10254000284600F0F1F84E4B50221A704F225A7074
:102550004E229A704722DA70042304E0191F484A79
:10256000D1540133DBB29AB2434909888A42F5D388
:10257000012000F095F83D4B9B6A3F4A1178404896
:1025800098474548FFF732FE642000F089F80BE0D9
:102590004048FFF72BFE0A2000F082F8334B5B6BBC
:1025A0004FF47A70984701240022324B1A704DE79D
:1025B0000022304B1A7049E73848FFF717FE6420B5
:1025C00000F06EF824B32E4B50221A7049225A7034
:1025D0004E229A704722DA70042304E0191F284A19
:1025E000D1540133DBB29AB2234909888A42F5D328
:1025F000012000F055F81D4B9B6A1F4A11782048B6
:1026000098472148FFF7F2FD642000F049F80AE0FE
:102610002048FFF7EBFD142000F042F8134B5B6BF2
:102620004FF47A7098470022124B1A700EE719483F
:10263000FFF7DCFD142000F033F80C4B5B6B4FF41C
:102640007A70984700220B4B1A70FFE6B400002006
:10265000CD22000825230008212200084922000875
:10266000712200089922000804B100089CB30008F8
:10267000400ECF19B20000206400002038AF0008DF
:1026800028040020AC05002014B1000850B1000857
:10269000B80500202CB0000824B1000834B10008AF
:1026A00008B503F029FB08BD0131008991FBF0F367
:1026B00000FB131080B2704738B504460D464188C0
:1026C000FFF7F2FF608063681D5438BD38B50446DB
:1026D00045680188FFF7E8FF0346285C238038BD82
:1026E00002884088824214BF00200120704700BF4A
:1026F00010B504464188FFF7D7FF2388984214BFDE
:102700000020012010BD00BF10B582B0059C0194CF
:102710009DF81040009402F0B7F902B010BD00BF60
:1027200008B502F00FF908BD08B502F08FF908BD31
:1027300008B502F08DFA08BD30B583B00A4C247894
:102740007CB90446012508480570204602F0DAFFEE
:10275000064B0193002100912B460A46204603F0C8
:102760000DF803B030BD00BFD0000020801A060075
:102770002DE9F04182B0BDF820700F4C24788CB167
:10278000984616460D460446009702F0F9FF58B9E0
:102790000097434632462946204602F0F1FF0346A1
:1027A00020B904E0002302E0012300E001231846E1
:1027B00002B0BDE8F08100BFD000002010B582B0AB
:1027C000054C24782CB1BDF81040009402F0F4FFC1
:1027D00000E0002002B010BDD000002008B503F0DA
:1027E00007F808BD08B503F007F808BD08B503F001
:1027F00007F808BDF0B4154B1D682C6934B903689F
:102800005B1A03602861002303611DE023680B4409
:1028100018E00668B34208D9761A066014B1236836
:102820009E1B2660286104610EE022692AB9F31A12
:10283000036020610023036106E0176819462546FE
:1028400014463B44002DE4D1F0BC7047D400002076
:10285000054B1B6802E0834204D01B69002BFAD1B0
:102860000020704701207047D400002010B50446B6
:102870000022044B1A70006802F050FD206002F044
:1028800049FD10BDD100002008B5084B1B6823B1DD
:102890000268891A196000221A7203610123037207
:1028A000024B1860FFF7E2FF08BD00BFD400002014
:1028B0000023036043600372C1600361704700BF7F
:1028C00008B502F057FD08BD10B5044601F012FF2F
:1028D0001CB12046FFF7BCFF10B101F013FF10BD83
:1028E0006168216000232372104B1B681BB92046CE
:1028F000FFF7CAFF16E01A7A4AB1FFF7E1FF0B4B68
:102900001B681B68984200D91846191A00E019681C
:102910002368994203D92046FFF7B6FF02E020461C
:10292000FFF768FF01F0EEFE10BD00BFD4000020ED
:1029300008B5134B1B680BB3FFF7C2FF104B1B68A6
:102940001A68904202D300221A6001E0121A1A603B
:1029500000221A7205E00269094B1A60C36803B1CC
:102960009847074B186810B10368002BF3D028B1C3
:10297000037A1BB901230372FFF778FF08BD00BF7C
:10298000D400002010B5044601F0B4FE244B1A68B0
:1029900002B114B901F0B6FE10BDA24229D1137ADA
:1029A000D3B1FFF78DFF2368984200D918461B1A50
:1029B0001B4A126800211172106948B1184A106050
:1029C00002681344036001230372FFF74FFF23E003
:1029D0000022134B1A601FE0136933B122681049BB
:1029E0000B6019680A441A6016E000220C4B1A604A
:1029F00012E0216813460DE0A34209D11B6923B1FF
:102A000013611A681144196006E00023136103E0A2
:102A10001A461B69002BEFD101F074FE10BD00BFF8
:102A2000D400002038B504460D46FFF7ABFF256003
:102A3000656038BD08B502F097FC08BD08B502F026
:102A4000ABFC08BD10B544781CB90124447003F0F8
:102A500041F810BD10B584B09DF8204002949DF857
:102A60001C4001949DF81840009403F065F804B0F0
:102A700010BD00BF08B503F0E1F808BD10B4002395
:102A80000DE019460B4A52F83320824205D85A1CF1
:102A9000084C54F83220904204D30133DBB2142B9B
:102AA000EFD9FEE7034B03EBC10318795DF8044B44
:102AB000704700BF88B10008064B93F889303BB9D6
:102AC000044B93F8B4301BB90122024B83F8B420B5
:102AD000704700BF90040020014B93F888007047B6
:102AE00090040020F8B507460E4615460C4C002110
:102AF0002046FFF719FE47F08001A4F1280002F0FC
:102B0000CBFD002405E0315D064802F0C5FD01342F
:102B1000E4B2AC42F7D301210148FFF705FEF8BD4E
:102B20000C050020E404002000B583B002AB03F8DC
:102B3000011D01221946FFF7D5FF03B05DF804FB24
:102B400010B5114BC3F88C00FDF72EFE0CA3D3E992
:102B50000023FDF79FFEFEF75FF90446C0F307412F
:102B60000620FFF7E1FFC4F307210720FFF7DCFF92
:102B7000E1B20820FFF7D8FF10BD00BFAFF300801F
:102B80008DEDB5A0F7C6903F90040020F8B507463C
:102B90000E4615460D4C00212046FFF7C5FD07F0F7
:102BA0007F01A4F1280002F077FD002406E0002157
:102BB000074802F071FD30550134E4B2AC42F6D35F
:102BC00001210248FFF7B0FDF8BD00BF0C05002051
:102BD000E404002000B583B001220DF10701FFF7E6
:102BE000D5FF9DF8070003B05DF804FB000000006E
:102BF00038B50920FFF7EEFF05460620FFF7EAFF8C
:102C000004040720FFF7E6FF44EA00240820FFF74A
:102C1000E1FF2043FDF7C8FD1CA3D3E90023FDF726
:102C200039FEFEF7F9F8044600210920FFF77CFF82
:102C30003B20FFF7CFFF40F04001C9B23B20FFF738
:102C400073FF3B20FFF7C6FF10F0200FF9D10E48AD
:102C5000FFF776FF3B20FFF7BDFF40F04001C9B210
:102C60003B20FFF761FF3B20FFF7B4FF10F0200F80
:102C7000F9D129460920FFF757FF2046FFF760FFEB
:102C800038BD00BFAFF3008000A1BC3300000000DE
:102C900080844E40000000002DE9F047894610B1C5
:102CA00001285BD0FAE0884CB4F8A4502720FFF745
:102CB00091FF20F0F80001302844FDF785FD024621
:102CC0000B4694F8A61011B10020002101E000206D
:102CD0007E49FDF72DFC04460D463020FFF77AFFB4
:102CE00030F0F90302D00020784901E000200021F3
:102CF00022462B46FDF71CFC04460D464846FDF7D0
:102D000063FD22462B46FDF713FC02460B466E4937
:102D100091F8A81019B100204FF0804101E0002087
:102D20000021FDF705FC0022694BFDF7B3FD0446C9
:102D30000D46654BD3F8A000FDF736FD02460B4665
:102D400020462946FDF7D0FE0022624BFDF7A2FD8A
:102D5000FDF79AFBFEF760F8BDE8F0875A4BD3F811
:102D6000C830082B06D0092B08D0072B0AD0002426
:102D700000250AE04CA5D5E9004506E04CA5D5E9BB
:102D8000004502E04CA5D5E90045DFF83C81D8F8C4
:102D9000CCA0012000FA0AF0FDF716FD02460B4612
:102DA00020462946FDF7A0FE02460B460020474973
:102DB000FDF79AFE04460D46B8F8D200FDF704FD73
:102DC0000022454BFDF7B4FB02460B462046294640
:102DD000FDF760FD06460F464FEA8A03C3EBC901C3
:102DE00098F8D60001EB001398F8D4200AB114200B
:102DF00000E00020181A1C30FDF7D6FC80468946FA
:102E0000314B93F8D0300BB1022000E00020C0EB32
:102E10000A008000FDF7C8FC02460B4640464946C2
:102E2000FDF762FEFDF720FA80468946264B93F8AF
:102E3000D1000430FDF7C8FC02460B464046494627
:102E4000FDF728FD8046894600220023FDF7A8FFF4
:102E500018B94FF000084FF0000900221C4B404603
:102E60004946FDF765FB02460B4620462946FDF71D
:102E700011FD02460B4630463946FDF759FB00224C
:102E8000144BFDF707FD0EA3D3E90023FDF750FB1C
:102E9000FDF772FAFDF7C0FFBDE8F0870020BDE83E
:102EA000F08700BFAFF300800000000080840E4177
:102EB0000000000080841E41000000008084FE406D
:102EC0002B8716D9CEF7EF3F900400200000F03F8B
:102ED0000000204000408F400000114008B510B1B4
:102EE000012808D019E01120FFF774FEC0F3470055
:102EF000404200B208BD0A4BD3F88C20094B9A42DD
:102F000005D91B20FFF766FE9D3800B208BD1B20C7
:102F1000FFF760FEA43800B208BD4FF0FF3008BDD7
:102F20009004002040DD4A1F10B5044618B9012066
:102F300002F0A6FD05E0002002F0A2FD204602F00E
:102F4000AFFD0120FFF746FE20F0070040EA040134
:102F5000C9B20120FFF7E8FD10BD00BF08B5074862
:102F6000FFF710FD0648FFF70DFD0020FFF7DCFF1F
:102F70000022044B83F8882008BD00BF7C05002098
:102F8000680400209004002008B50748FFF7FAFC09
:102F90000648FFF7F7FC0120FFF7C6FF0022044BAD
:102FA00083F8882008BD00BF7C050020680400204D
:102FB0009004002070B50546974B93F8893013B103
:102FC000012B2BD0F7E0944C94F8AA604020FFF737
:102FD00001FE00F0030141F00C014020FFF7A4FDC9
:102FE0004120FFF7F7FD60F03E01C9B24120FFF735
:102FF0009BFD3520FFF7EEFD00F03F0084F8C20096
:103000001E210D20FFF790FD002384F8B43084F8D2
:10301000B530A4F8C030A4F8BE30CDE07E4B93F8B4
:10302000D9306BB13320FFF7D5FD40F04101C9B273
:103030003320FFF779FD19213B20FFF775FD0FE0E5
:103040003320FFF7C7FD20F0410040F0010101F0FF
:10305000BF013320FFF768FD1D213B20FFF764FD12
:103060006D4BD3F8C830082B74D83120FFF7B2FD70
:1030700000F07F013120FFF757FD00213020FFF7DE
:1030800053FD654BD3F8C830082B6CD8DFE803F04C
:1030900005121F2C394653585D0048212F20FFF799
:1030A00043FD5D4BD3F88C0000F5F4500230FFF780
:1030B00047FD58E044212F20FFF736FD564BD3F84B
:1030C0008C0000F522503430FFF73AFD4BE04421EC
:1030D0002F20FFF729FD504BD3F88C0000F57450DA
:1030E0000430FFF72DFD3EE044212F20FFF71CFDAB
:1030F000494BD3F88C0000F5A2405E30FFF720FD6D
:1031000031E044212F20FFF70FFD434BD3F88C0013
:1031100000F5F4401230FFF713FD24E044212F2086
:10312000FFF702FD3C4BD3F88C0000F52240C6307F
:10313000FFF706FD17E040212F20FFF7F5FC12E016
:1031400040212F20FFF7F0FC0DE040212F20FFF75A
:10315000EBFC08E03120FFF73DFD60F07F01C9B2D4
:103160003120FFF7E1FC2C4B93F8DA6093F8D7306D
:1031700063B11D211120FFF7D7FC4020FFF72AFD86
:1031800000F033014020FFF7CFFC0BE01F2111209E
:10319000FFF7CAFC4020FFF71DFD00F03F01402073
:1031A000FFF7C2FC00210F20FFF7BEFC00210D201D
:1031B000FFF7BAFC00E000264FF4807200211748A8
:1031C000FEF798F80122144B83F888203DB1144C87
:1031D00029462046FFF726FC2046FFF775FB0E4BDD
:1031E00093F8893073B90520FFF79EFE96B90D4C10
:1031F000094BD3F8B0102046FFF714FC2046FFF728
:1032000063FB70BD1EB10520FFF78EFE70BD06206A
:10321000FFF78AFE70BD00BF90040020DC00002094
:103220007C0500207C04002008B501462848FFF7F3
:10323000F9FB284B93F8893013B1012B1BD03BE0ED
:103240004020FFF7C7FC00F0030141F010014020CF
:10325000FFF76AFC4120FFF7BDFC00F03E01412072
:10326000FFF762FC3520FFF7B5FC00F03F00194B7B
:1032700083F8C20020E0174B93F8D73073B1F521E3
:103280001120FFF751FC4020FFF7A4FC00F03301B0
:1032900041F040014020FFF747FC0DE0F7211120ED
:1032A000FFF742FC4020FFF795FC00F03F0141F0A2
:1032B00040014020FFF738FC0222064B83F88820AB
:1032C0000348FFF701FB0320FFF72EFE08BD00BFF8
:1032D000680400209004002008B50C4B93F8893056
:1032E000012B12D1FA211120FFF71EFC4020FFF71D
:1032F00071FC00F0FC014020FFF716FC0322034B99
:1033000083F888200720FFF70FFE08BD90040020F7
:1033100010B504460120FFF75DFC10F0800F04D0CB
:1033200001221C4B83F8892003E00022194B83F80B
:103330008920184B93F88930A3422AD0154B83F883
:103340008940012C12D0FFF709FE0120FFF742FC53
:1033500000F07F010120FFF7E7FB00214020FFF78D
:10336000E3FB30214120FFF7DFFB10BDFFF7F6FD47
:103370000120FFF72FFC60F07F01C9B20120FFF7A9
:10338000D3FB00214020FFF7CFFB00214120FFF7B6
:10339000CBFB10BD9004002038B5194B1860194CB8
:1033A00021461948FFF784FA21461848FFF780FAAA
:1033B00021461748FFF77CFA02F0A2FAFFF718FC43
:1033C0000020FFF7B1FD134802F068FA00240CE07A
:1033D000114A04EB4403D518D05CFFF799FFA97894
:1033E0006878FFF7A1FB0134E4B20F2CF0D900207C
:1033F000FFF78EFF0022094B83F8882038BD00BFFD
:10340000D800002091410008680400207C050020BD
:103410007C0400206800002058B1000890040020BF
:10342000F8B507460C4616461D46FFF771FF2046C5
:10343000FFF786FB0520FFF777FD0120FFF730F946
:10344000FFF7F8FA044604E03846FFF747FDB042BC
:1034500006DC2046FFF7F2FAA842F5D3012400E08B
:103460000024FFF77BFD2046F8BD00BF38B50120E2
:10347000FFF74EFFFF211120FFF756FB0520FFF756
:1034800053FD00252C460BE00120FFF709F92C2005
:10349000FFF7A0FB00F00100A04005430134E4B2B7
:1034A0001F2CF1D9FFF75AFD284638BD0000000057
:1034B0002DE9F04F85B00546009114460293BDF802
:1034C0003C80BDF8403001939DF844709DF8486001
:1034D0009DF84C909DF858B09DF85CA0FFF718FF40
:1034E0001DB1012D00F0818053E1AD4D009BC5F869
:1034F0009830C5F8A0400E9AC5F89C2085F8A670B3
:1035000085F8A76085F8A89085F8A9B085F8AAA0E5
:10351000A5F8A4802046FDF747F982468B4602466F
:103520000B4600209F49FDF7DFFACDE90201019823
:10353000FDF74AF9DDE90223FDF7ACF900229A4BC9
:10354000FDF7A8F9FDF768FCC5F8B00052465B46E8
:1035500091A1D1E90001FDF7C7FAFDF75DFC84B246
:10356000210A0220FFF7E0FAE1B20320FFF7DCFABC
:103570000098FFF783FA01461220FFF7D5FA0E985C
:10358000FFF77CFA01461320FFF7CEFA4FEA182125
:103590002520FFF7C9FA5FFA88F12620FFF7C4FA61
:1035A00027B131463220FFF7BFFA03E0FF21322076
:1035B000FFF7BAFA3020FFF70DFB00F06F000FB1F4
:1035C000002101E06FF07F01014341EA0911C9B216
:1035D0003020FFF7A9FA3120FFF7FCFA40F0400154
:1035E000C9B23120FFF7A0FAD3E0009B022B00D92B
:1035F000FEE7009D07356A4BC3F8C850C3F8CC40BE
:103600009DF8082083F8D120A3F8D28083F8D470E5
:1036100083F8D56083F8D6909DF8502083F8D720A2
:103620009DF8542083F8D82083F8D9B083F8DAA025
:103630000C2C02D8052C02D902E00C2400E0062450
:10364000072D03D1A4F10B03012B03D9082D06D1BB
:103650000C2C04D10122524B83F8D02003E000222D
:103660004F4B83F8D0201D20FFF7B4FA029B59007E
:1036700041EA05113943C9B21D20FFF755FA1E2052
:10368000FFF7A8FA00F0080040EA041343EA8909AA
:10369000019BC3F3012349EA0301C9B21E20FFF7CE
:1036A00043FA2620FFF796FA3D4B93F8D01020F00E
:1036B000080040EAC101C9B22620FFF735FA9DF89B
:1036C00004101F20FFF730FA4FEA18212020FFF7DF
:1036D0002BFA5FFA88F12120FFF726FA1FB1314655
:1036E0002220FFF721FA2E4B93F8D73073B14420F4
:1036F000FFF770FA60F07F01C9B24420FFF714FAB7
:10370000274B93F8D8102420FFF70EFA092D0ED17D
:10371000234BD3F88C20254B9A4208D9022136201E
:10372000FFF702FA64213A20FFF7FEF90EE0092DB7
:1037300008D102213620FFF7F7F97F213A20FFF761
:10374000F3F903E003213620FFF7EEF9062C10D140
:103750003120FFF73FFA20F0070040F0050101F0AB
:10376000FD013120FFF7E0F90C213720FFF7DCF9EC
:103770000FE03120FFF72EFA20F0070040F00301A0
:1037800001F0FB013120FFF7CFF90A213720FFF7C5
:10379000CBF905B0BDE8F08F0000000080847E41C9
:1037A000900400200000204000408F4040DD4A1F70
:1037B0002DE9F04F85B00290019103921D460E9CB9
:1037C0009DF83CB0BDF840609DF844809DF848707D
:1037D0009DF84C909DF854A0FFF79AFD019802F0D7
:1037E000B9F8029B13B1012B64D004E1884B9DF81A
:1037F000042083F89020039AC3F89420C3F89850CB
:10380000C3F8A040A3F8A46083F8A68083F8A8704A
:1038100083F8A9A01699C3F8AC101046FCF7C4FFB2
:1038200077A3D3E90023FDF735F8FDF7F5FA85B264
:10383000290A0420FFF778F9E9B20520FFF774F9A7
:103840002046FCF7B1FF02460B466FA1D1E900010B
:10385000FDF74AF9FDF7E0FA84B2210A0220FFF7EA
:1038600063F9E1B20320FFF75FF9310A2520FFF782
:103870005BF9F1B22620FFF757F93020FFF7AAF9DC
:1038800000F06F00B8F1000F01D0002101E06FF0EF
:103890007F01014341EA0711C9B23020FFF744F923
:1038A0003120FFF797F940F04001C9B23120FFF70E
:1038B0003BF9A0E0564B9DF8042083F8C420022D6C
:1038C00000D9FEE70735524BC3F8C850C3F8CC40C7
:1038D00083F8D1B0A3F8D26083F8D48083F8D7906E
:1038E0009DF8502083F8D82083F8D67083F8D9A0AB
:1038F000169AC3F8DC200C2C02D8052C02D902E061
:103900000C2400E00624072D03D1A4F10B03012BA6
:1039100003D9082D06D10C2C04D101223C4B83F88D
:10392000D02003E000223A4B83F8D020B9F1000FF9
:103930000ED04420FFF74EF960F07F01C9B2442059
:10394000FFF7F2F8324B93F8D8102420FFF7ECF889
:103950001D20FFF73FF94FEA4B0141EA051548EA00
:103960000501C9B21D20FFF7DFF81E20FFF732F96D
:1039700000F00B0040EA041141EA8701C9B21E20A1
:10398000FFF7D2F82620FFF725F9214B93F8D01046
:1039900020F0080040EAC101C9B22620FFF7C4F8B0
:1039A000310A2020FFF7C0F8F1B22120FFF7BCF860
:1039B000062C10D13120FFF70DF920F0070040F060
:1039C000050101F0FD013120FFF7AEF80C21372091
:1039D000FFF7AAF80FE03120FFF7FCF820F007000E
:1039E00040F0030101F0FB013120FFF79DF80A21AF
:1039F0003720FFF799F805B0BDE8F08FAFF30080EE
:103A00008DEDB5A0F7C6903F0000000080847E4198
:103A10009004002030B58BB00D464FF47A7404FB4F
:103A200002F4FFF78DF808940020079006900590A7
:103A3000049003900523029301904FF49653009352
:103A4000034602462946FFF7B3FE3120FFF7C2F8CE
:103A500000F0BF013120FFF767F8F0214020FFF7A9
:103A600063F8A0214120FFF75FF8084D2146284662
:103A7000FEF7D8FF0222064B83F888202846FEF77F
:103A800023FF0320FFF750FA0BB030BD680400207D
:103A9000900400200000000038B53B4B93F88830BC
:103AA000012B02D0022B4FD038BD374B93F8893011
:103AB00013B1012B34D038BD334B1B6C1BB9012221
:103AC000314B83F8B420304BB3F8B430012B53D1D1
:103AD0002E48FEF757FF2C4C012384F8B5301120F7
:103AE000FFF778F84008434284F8B6301B20FFF710
:103AF00071F805021C20FFF76DF82843FCF764FEFF
:103B00001FA3D3E90023FCF7C5FEFDF75DF9C4F858
:103B1000B8000C20FFF75EF8400984F8BC0038BDFF
:103B2000194B93F8D7303BB302211220FEF7FCFF6C
:103B3000174B1B6803B35C69F4B11C20FFF74AF80C
:103B400000F03F00A04738BD0F4B93F88930012BA0
:103B500012D10D4B93F8D73073B102211220FEF72A
:103B6000E3FF0B4B1B683BB15C692CB11C20FFF7DA
:103B700031F800F03F00A04738BD00BFAFF3008030
:103B80000000000080844E40900400207C0400204F
:103B9000D800002008B5114B93F88930012B1CD1B7
:103BA0001220FFF717F810F0010F0BD0052112209B
:103BB000FEF7BAFF0A4B1B687BB19B696BB1012012
:103BC000984708BD04211220FEF7AEFF044B1B6886
:103BD0001BB19B690BB10020984708BD90040020E1
:103BE000D800002008B50A4601460020FEF77AFFFB
:103BF00008BD00BF30B583B005468DF80710434BB4
:103C000093F8893013B1012B36D07AE03F4B002274
:103C1000A3F8C0209DF80710A3F8BE1093F8A630B3
:103C20002BB901210DF10700FFF7DCFF02E0322084
:103C3000FEF77AFF9DF80720531EDBB23F2B03D817
:103C4000324B83F8C32007E02946314802F062F87E
:103C500020222E4B83F8C3202C4C94F8C310284606
:103C6000FFF7C0FF94F8C320B4F8C0301344A4F8A1
:103C7000C030D4F8AC0045E0244B93F8D93063B1A0
:103C80003320FEF7A7FF00F0BE013320FEF74CFF04
:103C900019213B20FEF748FF0FE03320FEF79AFF83
:103CA00020F0410040F0010101F0BF013320FEF798
:103CB0003BFF1D213B20FEF737FF9DF80710134BFC
:103CC00083F8E8102220FEF72FFF00210E20FEF7D8
:103CD0002BFF00210D20FEF727FF0120FEF77AFFC2
:103CE00030F0F80304D1FFF74FF90120FEF7D8FCBC
:103CF0009DF807102846FFF775FF044BD3F8DC004A
:103D000000E00020FFF790FA03B030BD90040020DF
:103D1000DC00002008B50A4601460020FEF736FF09
:103D200008BD00BF10B582B000238DF80730B14B3D
:103D300093F88830012B03D0022B00F0438157E128
:103D4000AC4B93F889301BB1012B00F0AA804FE1F6
:103D5000A84B93F8A830002B3DD03F20FEF73AFF48
:103D60008DF807009DF8073013F0020F33D10B21B7
:103D70003E20FEF7D9FE10213F20FEF7D5FE9E48DB
:103D8000FEF700FE9B4B93F8AA303BB99B48FEF729
:103D9000F9FD0022974B83F888200BE00D20FEF7F9
:103DA00019FF40F04001C9B20D20FEF7BDFE934857
:103DB000FEF78AFD924B1B6813B11B6903B198474C
:103DC0008C4B002283F8B42083F8B520A3F8C020E0
:103DD000A3F8BE200CE1874BB3F8BE1009BBB3F8C3
:103DE000C030F3B9834B93F8A63023B9012185483D
:103DF000FFF790FF05E03220FEF7ECFE7D4BA3F8C5
:103E0000BE007C4CB4F8C030B4F8BE10C91AC9B2B8
:103E10007D481844FFF77EFFB4F8BE30A4F8C030E8
:103E20000CE0744CB4F8C030C91AC9B276481844D2
:103E3000FFF770FFB4F8BE30A4F8C0306E48FEF74C
:103E4000A1FD6C4B93F8AA303BB90022694B83F873
:103E500088206A48FEF796FD0BE00D20FEF7BAFEBB
:103E600040F04001C9B20D20FEF75EFE6348FEF748
:103E70002BFD634B1B684BB19C683CB15D49002333
:103E800091F9B620B1F8BE105F48A047594B002207
:103E900083F8B42083F8B520A3F8C020A3F8BE208F
:103EA000A6E040211220FEF73FFE1220FEF792FE10
:103EB0008DF807009DF8073013F0200F19D020214E
:103EC0001220FEF731FE4B4B93F8DA301BB900227B
:103ED000484B83F888204848FEF754FD484B1B6840
:103EE000002B00F085801B69002B00F08180984733
:103EF0007EE01920FEF76EFE40B23E4B83F8E400F0
:103F0000002804DA4042C0F38500444201E0C0F3D7
:103F100085041A20FEF75EFE03B2002C15DA354A3E
:103F2000D2F88C10394A914207D900EB231323446D
:103F30009D3B304AA2F8E6301AE000EB23132344FD
:103F4000A43B2C4AA2F8E63012E02A4AD2F88C10A0
:103F50002E4A914206D900EB23109D38254BA3F839
:103F6000E60005E000EB2310A438224BA3F8E6009E
:103F70001320FEF72FFE1F4C84F8E8001020FEF7F8
:103F800029FE01460D20FEF7CFFD94F8E8101E48EB
:103F9000FFF7C0FE94F8DA3013B9002284F88820C5
:103FA0001548FEF7EFFC164B1B680BB39C68FCB181
:103FB000104991F9E430B1F9E62091F8E81012487F
:103FC000A04715E01248FEF7DDFC0A4B93F8893054
:103FD000012B03D108211220FEF7A6FD0022054B7C
:103FE00083F88820064B1B6813B11B6803B1984700
:103FF00002B010BD900400207C0500207C0400204D
:10400000D80000204E050020DC00002040DD4A1FC3
:104010006804002010B5414B93F88830012B02D082
:10402000022B53D010BD3D4B93F8893013B1012BB7
:104030003AD010BD394BB3F8BE3093B9374BB3F813
:10404000C03073B9354B93F8A63023B901213448F9
:10405000FFF760FE05E03220FEF7BCFD2F4BA3F812
:10406000BE002E4BB3F8BE00B3F8C020841A93F8FC
:10407000C2108C420CDD2B481044FFF74BFE274B3F
:1040800093F8C210B3F8C0200A44A3F8C02010BDB2
:10409000811AC9B223481044FFF73CFE1F4BB3F806
:1040A000BE20A3F8C02010BD1F48FEF76BFC802186
:1040B0001220FEF739FD0022184B83F888201B4B95
:1040C0001B684BB3DB683BB3984710BD134B93F8A9
:1040D00089300BBB114BB3F8BE20B3F8C000141AE3
:1040E00093F8C3108C420CDD0E4B1844FFF77AFD99
:1040F0000A4B93F8C310B3F8C0200A44A3F8C020B9
:1041000010BD111AC9B2074B1844FFF76BFD034BE2
:10411000B3F8BE20A3F8C02010BD00BF900400205B
:104120004E050020DC0000207C050020D800002087
:1041300038B504460D46FFF7EBF814B1012C09D051
:1041400038BD074B93F8A63043B929463220FEF715
:10415000EBFC38BD29462320FEF7E6FC38BD00BF46
:104160009004002010B504460120FFF7D1F8074B5A
:1041700083F8E04024B134213920FEF7D5FC10BD8E
:1041800012213920FEF7D0FC10BD00BF90040020A2
:1041900038B5324B93F88830012B02D0022B33D044
:1041A00038BD2E4B93F889303BBB2C4C84F8B4308F
:1041B00084F8B530A4F8C030A4F8BE300B213E20FE
:1041C000FEF7B2FC10213F20FEF7AEFC94F8AA30B7
:1041D00063B10D20FEF7FEFC40F04001C9B20D2096
:1041E000FEF7A2FC1E48FEF76FFB06E000221B4B09
:1041F00083F888201A48FEF7C5FB1A4B1B6863B387
:10420000DB6853B3984738BD01F07AFBFEF7F0FC4A
:104210000020FEF789FE00240CE0134A04EB44035F
:10422000D518D05CFFF774F8A9786878FEF77CFCA5
:104230000134E4B20F2CF0D90020FFF769F8074CE5
:1042400094F8E000FFF78EFF002384F88830054BD8
:104250001B6813B15B6803B1984738BD9004002018
:104260007C040020D800002058B1000808B501F0F7
:1042700045FB013008BD00BF2DE9F04182B0064684
:104280000C4690461F46099D00238DF807308DF897
:10429000063000F0CFF93470464B1C4003D5013C8A
:1042A00064F00F04013464B20123A3409BB2738015
:1042B000072C03DD1B0A73800E2402E0DBB273803F
:1042C0000F240DF10701204600F0A8F9B8F1010F05
:1042D00007D172889DF8073023EA02038DF8073072
:1042E00005E073889DF8072013438DF807309DF88B
:1042F0000710204600F060F996F900302D4A13406F
:1043000003D5013B63F00F0301335BB2072B1ADDCA
:104310000DF106010A2000F081F9012F09D17388FF
:104320009DF806101943C9B20A2000F045F910247F
:1043300023E071889DF8063023EA01010A2000F08D
:104340003BF9102419E00DF106010B2000F066F98D
:10435000012F09D173889DF806101943C9B20B20AB
:1043600000F02AF9112408E071889DF8063023EA4C
:1043700001010B2000F020F911240DF10701204666
:1043800000F04CF93DB972889DF8073023EA02032A
:104390008DF8073005E073889DF8072013438DF8EA
:1043A00007309DF80710204600F006F902B0BDE87E
:1043B000F08100BF0F0000802DE9F04182B005467A
:1043C0000C461E4600238DF8073090F90030414A14
:1043D000134003D5013B63F00F0301335BB2072B9E
:1043E00001DD122700E013270DF10701384600F028
:1043F00015F969889DF8073023EA01018DF8071047
:10440000384600F0D9F8012C03D0022C03D1022742
:1044100002E0012700E0032700231C4604E00123FB
:10442000A3409BB20134E4B26A889342F7D1032CD3
:1044300006D9082C07D90C2C08D84FF0150807E02E
:104440004FF0170804E04FF0160801E04FF0140891
:104450000DF10701404600F0E1F8013C0F2C2BD88C
:10446000DFE804F008101922081019220810192298
:10447000081019229DF8073023F003031F438DF81D
:10448000077019E09DF8073023F00C0343EA870713
:104490008DF8077010E09DF8073023F0300343EAF1
:1044A00007178DF8077007E09DF8073003F03F030A
:1044B00043EA87178DF807709DF80710404600F013
:1044C0007BF82B7803F00F03034A42F8236002B015
:1044D000BDE8F0810F000080DC01002070B582B0E3
:1044E00005460E4600238DF8073090F90030144A37
:1044F000134003D5013B63F00F0301335BB2072B7D
:1045000001DD102400E011240DF10701204600F028
:1045100085F83EB96A889DF8073023EA02038DF8D2
:10452000073005E06B889DF8072013438DF80730AE
:104530009DF80710204600F03FF802B070BD00BFA4
:104540000F00008010B582B0044600238DF80730BC
:1045500090F900300D4A134003D5013B63F00F037F
:1045600001335BB2072B01DD102000E011200DF1BB
:10457000070100F053F863889DF807201A4201D123
:10458000002000E0012002B010BD00BF0F0000803D
:1045900010B582B0064B1C78640000920B460246B0
:1045A00004F0FE010348FEF7E3F802B010BD00BFBF
:1045B0001C0200209005002000B583B002AB03F878
:1045C000011D01221946FFF7E3FF03B05DF804FB6C
:1045D00008B512217D20FFF7EFFF012806D1342115
:1045E0007D20FFF7E9FF012802D108BD002008BDAA
:1045F000002008BD10B582B0064B1C786400009204
:104600000B46024604F0FE010348FEF7D7F802B05D
:1046100010BD00BF1C0200209005002008B501223B
:10462000FFF7E8FF08BD00BF014B1870704700BFDF
:104630001C02002008B5064B1B783BB93E20FFF753
:10464000F3FF0122024B1A70FFF7C2FF08BD00BF43
:104650001D02002082B01B4B9A6D42F080529A6579
:104660009A6D02F080520092009A17490A6822F46B
:10467000C06242F400720A600A6802F4C0620192E9
:10468000019A1A6842F480321A600E4B1B6813F4C8
:10469000003FFAD00B4A136843F080731360094B54
:1046A0001B6813F0007FFAD0064A936843F00303B7
:1046B0009360044B9B6803F00C030C2BF9D102B000
:1046C000704700BF001002400070004000B587B086
:1046D0000023019300930322152103A8FEF714F889
:1046E00001F0B4FF01F0AAFF01F0B8FF07B05DF8D8
:1046F00004FB00BF72B6024A13780133137070478F
:104700001E020020034A1378013BDBB2137003B989
:1047100062B670471E02002070B582B00F4E0024B2
:10472000019400942346012212213046FDF7ECFF4C
:104730000B4D019400942346012248212846FDF7A1
:10474000E3FFFEF74BF801213046FDF7EDFF0121B5
:104750002846FDF7E9FF02B070BD00BFB805002094
:10476000AC05002008B501F04BFF02F029F808BDA8
:1047700000B583B000240194009423460122122145
:104780001148FDF7C1FF01940094234601224821FE
:104790000E48FDF7B9FF0D4C2046FDF7C9FF80F02C
:1047A00001012046FDF7C0FF6420FDF779FF204698
:1047B000FDF7BEFF80F001010348FDF7B5FF64205F
:1047C000FDF76EFFE7E700BFB8050020AC0500204D
:1047D00000B5BBB0344B9A6D42F080529A659B6D28
:1047E00003F080530093009B304A136823F4C063A6
:1047F00043F400731360136803F4C0630193019BD7
:104800000523299300232A9301232B930222339219
:1048100034930823369303233593072337930423D4
:104820003893399329A802F0FBFD20B14FF4D971D8
:104830001F48FFF79DFF0F23249303232593002395
:10484000269327932893012124A803F077F920B118
:1048500040F2BD111648FFF78BFF4FF4003302936F
:104860004FF48073239302A803F0D0FC20B14FF4DF
:10487000E2710F48FFF77CFF03F09EFA0D4BA3FB9C
:104880000030800901F068FF042001F07BFF032065
:1048900001F0ECFE002211464FF0FF3001F004FF62
:1048A0003BB05DF804FB00BF001002400070004008
:1048B00038B20008D34D621030B585B01D4B1B785F
:1048C0007BB901F091FEFFF783FF00F0C3FCFFF717
:1048D000FDFE4FF0FF331A4600211748FDF72CFF6D
:1048E00001E0FFF7B7FE154D36233522012128469A
:1048F000FEF7A8F8002402940194009423464FF494
:10490000E13202212846FEF7A5F84FF0FF3301936C
:104910004D2300934E234F222146094800F0F0FD1D
:1049200000F074FF034B1B7813B90122014B1A707E
:1049300005B030BD1F02002090050020C4050020F6
:10494000E404002070B586B0044616461D4690F972
:1049500000306F2B6CDC002D6DD043880193012952
:1049600002D1364B029306E0022902D1344B029366
:1049700001E0344B0293A37A03930223049301A929
:10498000606801F047FF032E07D8DFE806F0020257
:104990000804032104E0012102E0002100E00221DB
:1049A0006388B3F5807F30D010D8102B2BD006D879
:1049B000042B24D0082B24D0022B1ED129E0402B1D
:1049C00023D0802B21D0202B17D11EE0B3F5805FA0
:1049D0001DD009D8B3F5806F19D0B3F5006F16D08C
:1049E000B3F5007F09D110E0B3F5804F0FD0B3F5D8
:1049F000004F0CD0B3F5005F09D006260AE0082668
:104A000008E0092606E00A2604E0172602E0282628
:104A100000E00726237803F00F030B4A42F82350E7
:104A20000022304601F040FE304601F07FFE02E0F9
:104A30002B46FFF7C1FC06B070BD00BF000011108F
:104A400000002110000031102002002038B504467B
:104A50000D4690F900306F2B10DC20B94FF48971AE
:104A60000848FFF785FE94F90030B3F1FF3F07D007
:104A7000EAB26188606802F05DF838BDFFF72EFD8C
:104A800038BD00BF88B2000870B590B004469DF8EC
:104A900050006F2900F3C6802170B1F1FF3F00F094
:104AA000C78001F00F060125B540658011F0F001C7
:104AB00010D14FF09041616001F1784101F504316E
:104AC000CD6C45F00105CD64C96C01F00101039185
:104AD00003997AE010290FD15649616001F17841BC
:104AE00001F50331CD6C45F00205CD64C96C01F0D0
:104AF00002010491049968E020290FD14E496160B8
:104B000001F1784101F50231CD6C45F00405CD6429
:104B1000C96C01F004010591059956E030290FD1C7
:104B20004649616001F1784101F50131CD6C45F0F4
:104B30000805CD64C96C01F008010691069944E0AE
:104B400040290FD13E49616001F1784101F5003102
:104B5000CD6C45F01005CD64C96C01F010010791D2
:104B6000079932E050290FD13649616001F178414F
:104B700001F5FE31CD6C45F02005CD64C96C01F026
:104B800020010891089920E060290FD12E49616029
:104B900001F1F82101F58031CD6C45F04005CD647F
:104BA000C96C01F04001099109990EE02749616043
:104BB00001F1784101F5FA31CD6C45F08005CD6405
:104BC000C96C01F080010A910A9961880B91A07269
:104BD0000D9002210E9112B900230C9317E0032AC5
:104BE00002D103230C9312E0022A09D1012B02D136
:104BF00012230C9301E002230C93159B0F9306E004
:104C0000012B02D111230C9301E001230C93012A03
:104C100003D115992046FFF719FF0BA9606801F031
:104C2000F9FD05E0159D019500902046FFF724FB56
:104C300010B070BD0004004800080048000C004897
:104C4000001000480014004800180048001C0048EC
:104C500010B5044690F900306F2B0FDC20B940F2FC
:104C600043110948FFF784FD94F90030B3F1FF3F89
:104C700007D06188606801F04BFF10BDFFF762FC50
:104C800010BD002010BD00BF88B2000808B501208B
:104C900001F068FF08BD00BF08B5022001F062FF07
:104CA00008BD00BF08B5042001F05CFF08BD00BFCF
:104CB00008B5082001F056FF08BD00BF08B5102058
:104CC00001F050FF08BD00BF08B5202001F04AFFE9
:104CD000402001F047FF802001F044FF4FF4807036
:104CE00001F040FF4FF4007001F03CFF08BD00BF31
:104CF00008B54FF4806001F035FF4FF4006001F01B
:104D000031FF4FF4805001F02DFF4FF4005001F0BF
:104D100029FF4FF4804001F025FF4FF4004001F0DF
:104D200021FF08BD08B528B9002307E05208013368
:104D3000DBB201E002460023012AF7D1024A52F811
:104D4000233003B1984708BD20020020034630B14C
:104D500001210B4A11700B4A11880B4A1180084A35
:104D6000127862B1074A12881344074909888B42B6
:104D700005DC0021024B19706432024B1A80704727
:104D800097020020940200208E02002070B588B0A7
:104D900006460F4C002203A9204604F04DF80022DD
:104DA0000DF10601204604F043F90A4B1B88ADF8CB
:104DB00004309DF80900FFF7C9FF344601AD0FCD5F
:104DC0000FC495E8070084E80700304608B070BDBE
:104DD000600200209402002082B02DE9F04F83B0E1
:104DE00081460E460CA981E80C0004460D460FCD05
:104DF0000FC495E8070084E807009DF83AB09DF8D5
:104E000039509DF838409DF834806D48B04228BF35
:104E1000304600B90120FBF7C7FC63A3D3E90023A8
:104E2000FBF738FDCDE90001FBF72EFB06460F46E8
:104E3000DDE90023FBF77AFB0022624BFBF72AFD3A
:104E4000CDE90001DFF894A1DAF80000FBF7BCFC23
:104E5000DDE90023FBF76CFBFBF7B6FFCAF80000A7
:104E6000B0F5F47F19DBA0F5F470CAF80000002259
:104E7000554B30463946FBF75BFB06460F460CE0C8
:104E80004BA3D3E9002330463946FBF74FFB0646D8
:104E90000F4608F101081FFA88F845A3D3E900235B
:104EA00030463946FBF77CFF0028E9D10AE042A3EF
:104EB000D3E9002330463946FBF738FB06460F4658
:104EC0000134A4B23CA3D3E9002330463946FBF7B2
:104ED00067FF0028EBD109E000223C4B3046394601
:104EE000FBF724FB06460F460135ADB20022374BD7
:104EF00030463946FBF754FF0028EDD15846FBF702
:104F000063FC32463B46FBF713FBFBF785FF80B2A1
:104F100003E03C3880B20135ADB23B28F9D803E05C
:104F20003C3DADB20134A4B23B2DF9D805E0183CAC
:104F3000A4B208F101081FFA88F8172CF7D89DF8D9
:104F400035302BB1224A1288134413F0030F0ED1CF
:104F50009DF83330013B1F4AD35C9AB2904514D977
:104F600098FBF3F203FB12881FFA88F80DE09DF816
:104F70003330013B184AD35C9AB2904505D998FB6F
:104F8000F3F203FB12881FFA88F889F80A0089F8FF
:104F9000095089F8084089F80480484603B0BDE804
:104FA000F04F02B0704700BFFCA9F1D24D62004043
:104FB000000000000018F540000000000020AC4098
:104FC0007661110000408F400000F03F00004E402D
:104FD000940200203CB3000830B300089002002087
:104FE0002DE9F0419EB08046244F4FF48071384641
:104FF00003F05CFC384604F06FFA17AE3046FFF75A
:10500000C5FE1F4C35460FCD0FC495E8070084E858
:1050100007006C4619AD0FCD0FC42B68236096E8CE
:105020000C00414610A8FFF7D7FE4FF480730F9392
:1050300000220D920B928DF81B200C92139B07936C
:105040009DF84A308DF81A309DF849308DF81930A6
:105050009DF848308DF818309DF844308DF8383080
:1050600006A9384604F010F820B14FF4DA7105486B
:10507000FFF77EFB1EB0BDE8F08100BF600200209C
:10508000FC050020DCB20008F0B589B018B901A811
:10509000FFF77CFE07E0044601AD0FCC0FC594E896
:1050A000070085E8070000240026002718E014B157
:1050B00014F0030F09D140A3D3E900233046394649
:1050C000FBF736FA06460F4608E03DA3D3E9002376
:1050D00030463946FBF72CFA06460F46013424B217
:1050E0009DF80920BDF8043013449C42DFDBB2B1C7
:1050F00013F0030F15D000242BE02B4B1B5D2B4826
:1051000000FB03F0FBF750FB02460B4630463946E6
:10511000FBF70EFA06460F460134E4B202E0002423
:1051200000E000249DF80730013B9C42E5DB15E0E0
:105130001F4B1B5D1D4800FB03F0FBF735FB0246D0
:105140000B4630463946FBF7F3F906460F46013465
:10515000E4B29DF80730013B9C42E9DB9DF80E204C
:105160009DF80C109DF80D30C3EB031398004FF41D
:10517000616303FB010313449DF808200B4800FB07
:105180000230FBF711FB02460B4630463946FBF76F
:10519000CFF90022074BFBF77DFBFBF775F9FBF717
:1051A0003BFE09B0F0BD00BF3CB3000880510100D8
:1051B00030B300080040DF3F0000000050287E416F
:1051C0000000000038137E411E4B1B78002B37D1A6
:1051D00010B592B001A8FFF7D9FD00234FF48072FB
:1051E00008A9194804F01CF99DF822009DF8213007
:1051F000C3EB03139A0002449DF820104FF461643E
:1052000004FB01219DF80E009DF80D30C3EB031344
:105210009A0002449DF80C3004FB0320401AFBF76F
:10522000C3FA0022094BFBF735FBFBF71DF8FBF730
:10523000F3FD074B18600122024B1A7012B010BD2B
:10524000704700BF98020020600200200040DF3F4E
:10525000880200202A4B1B78002B50D100B589B062
:10526000284AD2F8903043F40043C2F890302648E0
:10527000264B03600023436003228260C260036107
:105280008361C36103F004FC18B1E4212048FFF7F7
:105290006FFA00228DF8092001238DF807308DF870
:1052A000083008A9062301F81A3D174803F0FAFD53
:1052B00018B1EB211648FFF75BFA00228DF80C209D
:1052C0008DF80D208DF80E208DF80F200692079294
:1052D00003A90D4803F0A8FC18B1F4210C48FFF70E
:1052E00047FA00220421292001F0DEF9292001F0EB
:1052F0001DFA0122024B1A7009B05DF804FB7047D9
:1053000096020020001002406002002000280040A9
:10531000DCB2000808B5FFF763FE08BD0F4B1B6841
:1053200083420AD20E4B1B7813F0FF0F05D00022E8
:105330000B4B1A70094B1B68C01A084B1B6898422C
:105340000BD9312803D80022064B1A70704701226E
:10535000044B1A70014B1B68C01A7047880200206A
:105360008C0200209902002008B50020FFF78CFE77
:1053700008BD00BF10B50020FFF786FE04460548B3
:10538000FFF782FE844202D2201A013810BD201A93
:1053900010BD00BFFC05002058B110B50446002028
:1053A000FFF772FE844202D9001B013810BD001BBA
:1053B00010BD0020704700BF08B50C4B5B69002B87
:1053C00003DA1F22094B9A6102E00122084B1A708E
:1053D000084B9B6803F00C03042B04D0054B9B681F
:1053E00013F00C0F01D1FFF767FA08BD0070004001
:1053F0008C0200200010024010B5044608B1FFF7EF
:10540000DBFF014B1C7010BD8402002010B5094C5D
:10541000204603F0C3FA4FF48071204603F046FAA9
:10542000FFF7CAFFFFF7D0FE0020FFF7E5FFFDF70B
:105430007FFA10BD60020020F0B49DF9105006788C
:105440006427234C07FB06440026A660B1F5E06FF5
:1054500007D104781E4907FB04114FF4E064CC60C7
:1054600007E0047864261A4906FB04114FF47064BF
:10547000CC6006781649642404FB06163261027873
:1054800004FB02125361037804FB031300221A6227
:10549000037804FB03135A62037804FB03139A6234
:1054A000037804FB03110723CB623DB90278084B54
:1054B00004FB02334FF482725A6006E002786421E2
:1054C000034B01FB023300225A60F0BC704700BF5F
:1054D0009C020020084B1B68002203E001325B089D
:1054E000062A01D88B42F9D802786421034B01FBCC
:1054F00002333822DA617047800000209C020020CD
:105500002DE9F04F85B004460D46924699469DF927
:1055100038809DF93C70FFF7EDF82570002D43D1E0
:10552000584B1A6C42F480521A641A6C22F480525E
:105530001A641A6E42F480521A661B6E03F480538A
:105540000293029B642303FB05F34F494F4AD1505A
:105550004FF0050BCDF804B002260096002332462A
:105560005146201DFDF7D0F8CDF804B00096002379
:105570003246494604F11000FDF7C6F8CDF804B0F4
:10558000009600233246414604F11C00FDF7BCF8AA
:10559000CDF804B00123009300233246394604F1CC
:1055A0002800FDF7B1F842E0364B9A6B42F4804296
:1055B0009A639A6B22F480429A639A6D42F4804215
:1055C0009A659B6D03F480430393039B642303FB61
:1055D00005F32F492D4AD1504FF0050BCDF804B0FB
:1055E00002260096002332465146201DFDF78CF816
:1055F000CDF804B0009600233246494604F110006D
:10560000FDF782F8CDF804B00096002332464146FB
:1056100004F11C00FDF778F8CDF804B001230093E5
:1056200000233246394604F12800FDF76DF8B7F142
:10563000FF3F0FD16423154A03FB05234FF400728B
:105640009A610022009213464FF4E0612046FFF772
:10565000F3FE08E00123009300231A464FF4E061B3
:105660002046FFF7E9FE0B492046FFF733FF642091
:10567000064B00FB053004F03DF8FFF743F805B09A
:10568000BDE8F08F00100240003001409C02002075
:10569000003800408096980070B584B000238DF8E3
:1056A0000F308DF80E10054630B10278642303FBED
:1056B00002F3124AD3581BB998211148FFF758F842
:1056C0002B780E4E642404FB03F3F258136843F066
:1056D00040031360FFF70EF82878009401230DF1C2
:1056E0000F020DF10E0104FB006004F039F9FFF721
:1056F00009F89DF80F0004B070BD00BF9C020020A7
:1057000048B300082DE9F04184B004461646984697
:10571000174B9A6D22F400129A659A6D42F40012AA
:105720009A659A6D02F400120392039A9A6B42F4FE
:1057300000129A639A6B22F400129A6300F8041B19
:105740000C4A0D4B1A600425019500270097012390
:1057500002223146FCF7D8FF01950097012302226F
:10576000414604F11000FCF7CFFF04B0BDE8F08122
:10577000001002400054004064030020704700BF46
:1057800010B584B018460A4B1B780BB9012300E012
:1057900002234FF4FA640294BDF81840019400907B
:1057A000044801F085FBB0FA80F0400904B010BD58
:1057B000B00300206403002010B584B018460A4BE3
:1057C0001B780BB9012300E002234FF4FA64029422
:1057D000BDF8184001940090044801F05DFCB0FA57
:1057E00080F0400904B010BDB00300206403002025
:1057F00008B500F0BBFE08BD08B500F0AFFE08BD5F
:1058000008B500F08FFE08BD0120704770B582B06A
:10581000214E01250195009500232A464C21304652
:10582000FCF772FF002401940095234622460521CF
:10583000A6F17000FCF768FF01940095234622460C
:105840002946A6F16400FCF75FFF0194009523460A
:1058500022460221A6F15800FCF756FF019400955C
:10586000234622460321A6F14C00FCF74DFF01948C
:105870000095234622464B21A6F14000FCF744FF49
:1058800001940095234622464A21A6F13400FCF7F4
:105890003BFF02B070BD00BF0C05002038B50546C7
:1058A000154C0368032201212046FCF739FF6B6881
:1058B0000322012104F10C00FCF732FFAB68032244
:1058C000012104F11800FCF72BFFEB6803220121F2
:1058D00004F12400FCF724FF2B690322012104F1C9
:1058E0003000FCF71DFF6B690322012104F13C002D
:1058F000FCF716FF38BD00BF9C0400200020704755
:1059000030B583B00D4D002401940094234601224C
:1059100017212846FCF7F8FE0120FCF7C1FE012301
:10592000019300942346224617212846FCF7ECFEFB
:105930000620FCF7B5FE03B030BD00BF9004002088
:10594000034B984201D8802070470020704700BF69
:105950003FDD4A1F70B506460920FDF73BF90446B6
:105960004D20FDF737F90546284BD3F88C00FFF79B
:10597000E7FF04F07F042043C3B243F070035BB23F
:10598000002B2BDA112E03DD45F00705EDB205E003
:1059900025F0070545F0040505F0FC0505F00702B4
:1059A000072A0DD1042E00DC0526142E00DD142656
:1059B000711F01F00F0123F00F031943C9B21CE05E
:1059C000012E00DC0226112E00DD1126B11E01F091
:1059D0000F0123F00F031943C9B20EE0B6F1FF3FE8
:1059E00001DA4FF0FF360E2E00DD0E26711C01F09D
:1059F0000F0123F00F031943C9B20920FDF794F8F2
:105A000029464D20FDF790F870BD00BF900400209E
:105A100010B582B0012401940094002322464FF077
:105A2000FF310748FCF770FE0023019300942246E3
:105A30004FF0FF310348FCF767FE02B010BD00BF16
:105A4000180600202406002010B582B0002401941E
:105A5000009401231A464FF0FF310748FCF754FE2B
:105A60000194009401231A464FF0FF310348FCF7DC
:105A70004BFE02B010BD00BF180600202406002017
:105A800008B5064B1B78834207D0044B187010B939
:105A9000FFF7BEFF08BDFFF7D7FF08BDB103002029
:105AA00008B5032808D100210848FCF73DFE012174
:105AB0000748FCF739FE08BD01210448FCF734FE15
:105AC00000210348FCF730FE08BD00BF1806002087
:105AD000240600200170FF292AD0F0B585B01E46AB
:105AE00011460546134CA36B43F40033A363A36B29
:105AF00023F40033A363A36D43F40033A365A36DC4
:105B000003F400330393039B0727019701240094B8
